:020000040800F2
:10000000000400209D010008ED010008E90100083E
:10001000EB010008E50100080503000800000000EE
:10002000000000000000000000000000F1010008D6
:10003000E701000800000000EF010008910200083D
:10004000B7010008B7010008B7010008B7010008B0
:10005000B7010008B7010008B7010008B7010008A0
:10006000B7010008B7010008B7010008B701000890
:10007000B7010008B7010008B7010008B701000880
:10008000B7010008B7010008B7010008B701000870
:10009000B7010008B7010008B7010008B701000860
:1000A000B7010008B7010008B7010008B701000850
:1000B000B7010008B7010008B7010008B701000840
:1000C000B7010008B7010008B7010008B701000830
:1000D000B7010008B7010008B7010008B701000820
:1000E000B7010008B7010008B7010008B701000810
:1000F000B7010008B7010008B7010008B701000800
:10010000000000000000000000000000B70100082F
:10011000B7010008B7010008B7010008B7010008DF
:10012000B7010008B7010008B7010008B7010008CF
:10013000B7010008B701000800000000000000003F
:10014000B7010008B7010008B7010008000000006F
:10015000000000000000000000000000000000009F
:100160000000000000000000B7010008B70100080F
:10017000B7010008000000000000000000000000BF
:1001800000000000B7010008DFF80CD000F018F8FC
:100190000048004725030008000400200648804767
:1001A00006480047FEE7FEE7FEE7FEE7FEE7FEE75C
:1001B000FEE7FEE7FEE7FEE795020008890100087A
:1001C000064C074D06E0E06840F0010394E80700A4
:1001D00098471034AC42F6D3FFF7DAFF2803000843
:1001E00038030008FEE77047FEE7FEE770477047F8
:1001F000704700000CB5002201920092224801686D
:1002000041F4803101604FF4A043016801F40031F2
:1002100000910199491C0191009911B901999942E4
:10022000F3D10168890302D50121009100E0009219
:100230000099012926D1154A1221116041684160B7
:1002400041684160416841F480614160416821F446
:100250007C114160416841F4E8114160016841F05E
:100260008071016001688901FCD5416821F00301BA
:100270004160416841F0020141604168C1F3810180
:100280000229FAD10CBD00000010024000200240FB
:100290007047000010B51648016841F47001016014
:1002A0001448016841F0010101604168124A11409F
:1002B00041600168114A11400160016821F4802108
:1002C0000160416821F4FE014160C16A21F00F0123
:1002D000C162016B0A4A1140016300218160FFF78E
:1002E00089FF03494FF000608039086010BD0000AD
:1002F00088ED00E0001002400CC07FF8FFFFF6FE22
:10030000CCFC00FFFEE702E008C8121F08C1002A6B
:10031000FAD170477047002001E001C1121F002A86
:10032000FBD17047FEE70000380300080000002002
:080330000004000016030008A0
:040000050800019D51
:00000001FF
