:020000040800F2
:10000000000400209D010008E303000865020008C9
:10001000E1030008E50100081905000800000000E0
:1000200000000000000000000000000005040008BF
:10003000E701000800000000E5030008A50400082F
:10004000B7010008B7010008B7010008B7010008B0
:10005000B7010008B7010008B7010008B7010008A0
:10006000B7010008B7010008B7010008B701000890
:10007000B7010008B7010008B7010008B701000880
:10008000B7010008B7010008B7010008B701000870
:10009000B7010008B7010008B7010008B701000860
:1000A000B7010008B7010008B7010008B701000850
:1000B000B7010008B7010008B7010008B701000840
:1000C000B7010008B7010008B7010008B701000830
:1000D000B7010008B7010008B7010008B701000820
:1000E000B7010008B7010008B7010008B701000810
:1000F000B7010008B7010008B7010008B701000800
:10010000000000000000000000000000B70100082F
:10011000B7010008B7010008B7010008B7010008DF
:10012000B7010008B7010008B7010008B7010008CF
:10013000B7010008B701000800000000000000003F
:10014000B7010008B7010008B7010008000000006F
:10015000000000000000000000000000000000009F
:100160000000000000000000B7010008B70100080F
:10017000B7010008000000000000000000000000BF
:1001800000000000B7010008DFF80CD000F018F8FC
:100190000048004745050008000400200648804745
:1001A00006480047FEE7FEE7FEE7FEE7FEE7FEE75C
:1001B000FEE7FEE7FEE7FEE7A90400088901000864
:1001C000064C074D06E0E06840F0010394E80700A4
:1001D00098471034AC42F6D3FFF7DAFF6405000805
:1001E00074050008FEE77047F0B5002201270326DA
:1001F00007FA02F30C681C409C422BD10D79012DAB
:1002000001D0022D13D18468550006FA05FC24EABA
:100210000C0484604C79AC4085682C4384608488ED
:100220009C43848084888B7993401C438480056838
:10023000530006FA03F4A54305600D79D0F800C019
:100240009D4045EA0C050560C568A543CC799C40F6
:100250002C43C460521C102ACAD3F0BD01857047DC
:1002600081617047FEE700002DE9F0034FF48071D3
:10027000A0F1080233484B008C00CD000E014F0165
:100280004FF4804C4FF40048102A57D2DFE802F0B8
:10029000080C11161B20252A2F33383D42474C519C
:1002A000BDE8F003FFF7DCBFBDE8F0031946FFF738
:1002B000D7BF2146BDE8F003FFF7D2BF2946BDE80E
:1002C000F003FFF7CDBF3146BDE8F003FFF7C8BF2D
:1002D0003946BDE8F003FFF7C3BFBDE8F003614650
:1002E000FFF7BEBF4146BDE8F003FFF7B9BFBDE869
:1002F000F003FFF7B3BFBDE8F0031946FFF7AEBF49
:100300002146BDE8F003FFF7A9BF2946BDE8F00389
:10031000FFF7A4BF3146BDE8F003FFF79FBF3946A2
:10032000BDE8F003FFF79ABFBDE8F0036146FFF7B1
:1003300095BF4146BDE8F003FFF790BFBDE8F0036D
:1003400070470000001000481CB50121480500F06E
:100350004BF801208DF804000002009003208DF876
:10036000050000208DF806008DF807001B4C69463B
:100370002046FFF739FF4FF400710091694620468F
:10038000FFF732FF4FF48061009169462046FFF786
:100390002BFF4FF40061009169462046FFF724FFD0
:1003A0004FF48051009169462046FFF71DFF4FF43E
:1003B0000051009169462046FFF716FF4FF4804137
:1003C000009169462046FFF70FFF4FF4004100916E
:1003D00069462046FFF708FF1CBD000000100048DA
:1003E000FEE7704770470000054A002903D05169B5
:1003F0000143516170475169814351617047000069
:1004000000100240704700000CB5002201920092DB
:100410002248016841F4803101604FF4A043016833
:1004200001F4003100910199491C0191009911B921
:1004300001999942F3D10168890302D50121009104
:1004400000E000920099012926D1154A122111607D
:100450004168416041684160416841F480614160A8
:10046000416821F47C114160416841F4E811416028
:10047000016841F08071016001688901FCD5416823
:1004800021F003014160416841F00201416041688F
:10049000C1F381010229FAD10CBD00000010024015
:1004A000002002407047000010B51648016841F472
:1004B000700101601448016841F001010160416868
:1004C000124A114041600168114A114001600168FF
:1004D00021F480210160416821F4FE014160C16A7C
:1004E00021F00F01C162016B0A4A11400163002132
:1004F0008160FFF789FF03494FF000608039086091
:1005000010BD000088ED00E0001002400CC07FF834
:10051000FFFFF6FECCFC00FFFEE702E008C8121F5A
:1005200008C1002AFAD170477047002001E001C1DC
:10053000121F002AFBD1704700E0491C8142FCDBFE
:1005400070470000FFF700FF054D08242046FFF725
:100550008BFE2846FFF7F0FF641C172CF6DDF4E74E
:1005600040420F0074050008000000200004000055
:040570002A05000850
:040000050800019D51
:00000001FF
