:020000040800F2
:10000000000400209D0100088B0200086102000826
:1000100089020008E501000835040008000000001E
:10002000000000000000000000000000AD02000819
:10003000E7010008000000008D0200084D030008E1
:10004000B7010008B7010008B7010008B7010008B0
:10005000B7010008B7010008B7010008B7010008A0
:10006000B7010008B7010008B7010008B701000890
:10007000B7010008B7010008B7010008B701000880
:10008000B7010008B7010008B7010008B701000870
:10009000B7010008B7010008B7010008B701000860
:1000A000B7010008B7010008B7010008B701000850
:1000B000B7010008B7010008B7010008B701000840
:1000C000B7010008B7010008B7010008B701000830
:1000D000B7010008B7010008B7010008C103000814
:1000E000B7010008B7010008B7010008B701000810
:1000F000B7010008B7010008B7010008B701000800
:10010000000000000000000000000000B70100082F
:10011000B7010008B7010008B7010008B7010008DF
:10012000B7010008B7010008B7010008B7010008CF
:10013000B7010008B701000800000000000000003F
:10014000B7010008B7010008B7010008000000006F
:10015000000000000000000000000000000000009F
:100160000000000000000000B7010008B70100080F
:10017000B7010008000000000000000000000000BF
:1001800000000000B7010008DFF80CD000F018F8FC
:100190000048004755040008000400200648804736
:1001A00006480047FEE7FEE7FEE7FEE7FEE7FEE75C
:1001B000FEE7FEE7FEE7FEE75103000889010008BD
:1001C000064C074D06E0E06840F0010394E80700A4
:1001D00098471034AC42F6D3FFF7DAFF6C040008FE
:1001E0007C040008FEE77047F0B5002201270326D3
:1001F00007FA02F30C681C409C422BD10D79012DAB
:1002000001D0022D13D18468550006FA05FC24EABA
:100210000C0484604C79AC4085682C4384608488ED
:100220009C43848084888B7993401C438480056838
:10023000530006FA03F4A54305600D79D0F800C019
:100240009D4045EA0C050560C568A543CC799C40F6
:100250002C43C460521C102ACAD3F0BD8161704780
:10026000FEE700001CB50121C80400F011F80120D0
:100270008DF804004002009069460248FFF7B4FF81
:100280001CBD000000080048FEE7704770470000F2
:10029000054A002903D051690143516170475169F2
:1002A0008143516170470000001002407047000018
:1002B0000CB50022019200922248016841F480317D
:1002C00001604FF4A043016801F4003100910199ED
:1002D000491C0191009911B901999942F3D1016822
:1002E000890302D50121009100E0009200990129C3
:1002F00026D1154A12211160416841604168416070
:10030000416841F480614160416821F47C114160A1
:10031000416841F4E8114160016841F08071016079
:1003200001688901FCD5416821F003014160416801
:1003300041F0020141604168C1F381010229FAD113
:100340000CBD000000100240002002407047000079
:1003500010B51648016841F4700101601448016845
:1003600041F0010101604168124A11404160016899
:10037000114A11400160016821F480210160416847
:1003800021F4FE014160C16A21F00F01C162016BDD
:100390000A4A1140016300218160FFF789FF034988
:1003A0004FF000608039086010BD000088ED00E06B
:1003B000001002400CC07FF8FFFFF6FECCFC00FFEF
:1003C00010B5094C0749204600F010F8002808D065
:1003D000204600F027F8C1B22046BDE8104000F0EA
:1003E00025B810BD050105000048004030B50024C7
:1003F000C1F30723012505FA01F2012B0CD0022BD2
:100400000DD083681340090C8D40C06928400BB1A2
:1004100000B10124204630BD03681340F3E7436870
:100420001340F0E7808CC0F308007047C1F3080167
:1004300001857047FEE702E008C8121F08C1002AC4
:10044000FAD170477047002001E001C1121F002A55
:10045000FBD17047FFF706FF034D4FF400742146B0
:100460002846FFF7FBFEFAE7000800487C04000876
:0C0470000000002000040000460400080A
:040000050800019D51
:00000001FF
